{
  "contractName": "voteContract",
  "abi": [
    {
      "inputs": [],
      "stateMutability": "nonpayable",
      "type": "constructor"
    },
    {
      "inputs": [
        {
          "internalType": "address",
          "name": "",
          "type": "address"
        }
      ],
      "name": "hasVoted",
      "outputs": [
        {
          "internalType": "bool",
          "name": "",
          "type": "bool"
        }
      ],
      "stateMutability": "view",
      "type": "function",
      "constant": true
    },
    {
      "inputs": [],
      "name": "isClosed",
      "outputs": [
        {
          "internalType": "bool",
          "name": "",
          "type": "bool"
        }
      ],
      "stateMutability": "view",
      "type": "function",
      "constant": true
    },
    {
      "inputs": [],
      "name": "isOpen",
      "outputs": [
        {
          "internalType": "bool",
          "name": "",
          "type": "bool"
        }
      ],
      "stateMutability": "view",
      "type": "function",
      "constant": true
    },
    {
      "inputs": [
        {
          "internalType": "uint256",
          "name": "",
          "type": "uint256"
        }
      ],
      "name": "options",
      "outputs": [
        {
          "internalType": "uint8",
          "name": "",
          "type": "uint8"
        }
      ],
      "stateMutability": "view",
      "type": "function",
      "constant": true
    },
    {
      "inputs": [],
      "name": "owner",
      "outputs": [
        {
          "internalType": "address",
          "name": "",
          "type": "address"
        }
      ],
      "stateMutability": "view",
      "type": "function",
      "constant": true
    },
    {
      "inputs": [
        {
          "internalType": "uint256",
          "name": "",
          "type": "uint256"
        }
      ],
      "name": "voters",
      "outputs": [
        {
          "internalType": "address",
          "name": "voter",
          "type": "address"
        },
        {
          "internalType": "bool",
          "name": "voted",
          "type": "bool"
        }
      ],
      "stateMutability": "view",
      "type": "function",
      "constant": true
    },
    {
      "inputs": [
        {
          "internalType": "uint8",
          "name": "_option",
          "type": "uint8"
        }
      ],
      "name": "vote",
      "outputs": [],
      "stateMutability": "nonpayable",
      "type": "function"
    },
    {
      "inputs": [],
      "name": "close",
      "outputs": [],
      "stateMutability": "nonpayable",
      "type": "function"
    },
    {
      "inputs": [],
      "name": "results",
      "outputs": [
        {
          "internalType": "uint8[3]",
          "name": "",
          "type": "uint8[3]"
        }
      ],
      "stateMutability": "view",
      "type": "function",
      "constant": true
    }
  ],
  "bytecode": "0x60806040526040518060600160405280600060ff168152602001600060ff168152602001600060ff16815250600290600361003b9291906100a9565b5034801561004857600080fd5b50336000806101000a81548173ffffffffffffffffffffffffffffffffffffffff021916908373ffffffffffffffffffffffffffffffffffffffff1602179055506001600060146101000a81548160ff021916908315150217905550610160565b826003601f016020900481019282156101325791602002820160005b8382111561010357835183826101000a81548160ff021916908360ff16021790555092602001926001016020816000010492830192600103026100c5565b80156101305782816101000a81549060ff0219169055600101602081600001049283019260010302610103565b505b50905061013f9190610143565b5090565b5b8082111561015c576000816000905550600101610144565b5090565b610b1a8061016f6000396000f3fe608060405234801561001057600080fd5b50600436106100935760003560e01c80638da5cb5b116100665780638da5cb5b14610120578063a48bdb7c1461013e578063b3f98adc1461015c578063c2b6b58c14610178578063da58c7d91461019657610093565b806309eef43e14610098578063409e2205146100c857806343d726d6146100f857806347535d7b14610102575b600080fd5b6100b260048036038101906100ad919061068d565b6101c7565b6040516100bf91906106d5565b60405180910390f35b6100e260048036038101906100dd9190610726565b6101e7565b6040516100ef919061076f565b60405180910390f35b610100610211565b005b61010a6102d6565b60405161011791906106d5565b60405180910390f35b6101286102e9565b6040516101359190610799565b60405180910390f35b61014661030d565b604051610153919061085f565b60405180910390f35b610176600480360381019061017191906108a6565b61037e565b005b610180610598565b60405161018d91906106d5565b60405180910390f35b6101b060048036038101906101ab9190610726565b6105ab565b6040516101be9291906108d3565b60405180910390f35b60016020528060005260406000206000915054906101000a900460ff1681565b600281600381106101f757600080fd5b60209182820401919006915054906101000a900460ff1681565b60008054906101000a900473ffffffffffffffffffffffffffffffffffffffff1673ffffffffffffffffffffffffffffffffffffffff163373ffffffffffffffffffffffffffffffffffffffff161461029f576040517f08c379a000000000000000000000000000000000000000000000000000000000815260040161029690610959565b60405180910390fd5b60008060146101000a81548160ff0219169083151502179055506001600060156101000a81548160ff021916908315150217905550565b600060149054906101000a900460ff1681565b60008054906101000a900473ffffffffffffffffffffffffffffffffffffffff1681565b610315610608565b6002600380602002604051908101604052809291908260038015610374576020028201916000905b82829054906101000a900460ff1660ff168152602001906001019060208260000104928301926001038202915080841161033d5790505b5050505050905090565b600060149054906101000a900460ff1680156103a75750600060159054906101000a900460ff16155b6103e6576040517f08c379a00000000000000000000000000000000000000000000000000000000081526004016103dd906109c5565b60405180910390fd5b60038160ff161061042c576040517f08c379a000000000000000000000000000000000000000000000000000000000815260040161042390610a31565b60405180910390fd5b600360405180604001604052803373ffffffffffffffffffffffffffffffffffffffff168152602001600115158152509080600181540180825580915050600190039060005260206000200160009091909190915060008201518160000160006101000a81548173ffffffffffffffffffffffffffffffffffffffff021916908373ffffffffffffffffffffffffffffffffffffffff16021790555060208201518160000160146101000a81548160ff0219169083151502179055505050600160028260ff166003811061050357610502610a51565b5b602091828204019190068282829054906101000a900460ff166105269190610aaf565b92506101000a81548160ff021916908360ff16021790555060018060003373ffffffffffffffffffffffffffffffffffffffff1673ffffffffffffffffffffffffffffffffffffffff16815260200190815260200160002060006101000a81548160ff02191690831515021790555050565b600060159054906101000a900460ff1681565b600381815481106105bb57600080fd5b906000526020600020016000915090508060000160009054906101000a900473ffffffffffffffffffffffffffffffffffffffff16908060000160149054906101000a900460ff16905082565b6040518060600160405280600390602082028036833780820191505090505090565b600080fd5b600073ffffffffffffffffffffffffffffffffffffffff82169050919050565b600061065a8261062f565b9050919050565b61066a8161064f565b811461067557600080fd5b50565b60008135905061068781610661565b92915050565b6000602082840312156106a3576106a261062a565b5b60006106b184828501610678565b91505092915050565b60008115159050919050565b6106cf816106ba565b82525050565b60006020820190506106ea60008301846106c6565b92915050565b6000819050919050565b610703816106f0565b811461070e57600080fd5b50565b600081359050610720816106fa565b92915050565b60006020828403121561073c5761073b61062a565b5b600061074a84828501610711565b91505092915050565b600060ff82169050919050565b61076981610753565b82525050565b60006020820190506107846000830184610760565b92915050565b6107938161064f565b82525050565b60006020820190506107ae600083018461078a565b92915050565b600060039050919050565b600081905092915050565b6000819050919050565b6107dd81610753565b82525050565b60006107ef83836107d4565b60208301905092915050565b6000602082019050919050565b610811816107b4565b61081b81846107bf565b9250610826826107ca565b8060005b8381101561085757815161083e87826107e3565b9650610849836107fb565b92505060018101905061082a565b505050505050565b60006060820190506108746000830184610808565b92915050565b61088381610753565b811461088e57600080fd5b50565b6000813590506108a08161087a565b92915050565b6000602082840312156108bc576108bb61062a565b5b60006108ca84828501610891565b91505092915050565b60006040820190506108e8600083018561078a565b6108f560208301846106c6565b9392505050565b600082825260208201905092915050565b7f4f6e6c7920506f6c6c2063726561746f72732063616e20616363657373206974600082015250565b60006109436020836108fc565b915061094e8261090d565b602082019050919050565b6000602082019050818103600083015261097281610936565b9050919050565b7f566f74696e6720697320636c6f73656400000000000000000000000000000000600082015250565b60006109af6010836108fc565b91506109ba82610979565b602082019050919050565b600060208201905081810360008301526109de816109a2565b9050919050565b7f496e76616c6964206f7074696f6e000000000000000000000000000000000000600082015250565b6000610a1b600e836108fc565b9150610a26826109e5565b602082019050919050565b60006020820190508181036000830152610a4a81610a0e565b9050919050565b7f4e487b7100000000000000000000000000000000000000000000000000000000600052603260045260246000fd5b7f4e487b7100000000000000000000000000000000000000000000000000000000600052601160045260246000fd5b6000610aba82610753565b9150610ac583610753565b9250828201905060ff811115610ade57610add610a80565b5b9291505056fea26469706673582212201abd688e52980bfdf83b4f776b123d1a321bc8c3c7715572769a770506883aeb64736f6c63430008120033",
  "immutableReferences": {},
  "source": "// SPDX-License-Identifier: MIT\r\npragma solidity 0.8.18;\r\n\r\ncontract voteContract {\r\n    address public owner;\r\n    bool public isOpen;\r\n    bool public isClosed; \r\n\r\n    struct Voter {\r\n        address voter;\r\n        bool voted;\r\n    }\r\n    mapping(address => bool) public hasVoted;\r\n    uint8[3] public options = [0,0,0];\r\n    Voter[] public voters;\r\n\r\n    constructor() {\r\n        owner = msg.sender;\r\n        isOpen = true;\r\n    }\r\n\r\n    modifier onlyOwner() {\r\n        require(msg.sender == owner, \"Only Poll creators can access it\");\r\n        _;\r\n    }\r\n\r\n    modifier onlyNew() {\r\n        require(!hasVoted[msg.sender], \"Already Voted\");\r\n        _;\r\n    }\r\n\r\n    modifier onlyOpen() {\r\n        require(isOpen && !isClosed, \"Voting is closed\");\r\n        _;\r\n    }\r\n\r\n    function vote(uint8 _option) public onlyOpen{\r\n        require(_option < options.length, \"Invalid option\");\r\n\r\n        voters.push(Voter({\r\n            voter: msg.sender,\r\n            voted: true\r\n        }));\r\n        options[_option] += 1;\r\n        hasVoted[msg.sender] = true;\r\n    }\r\n\r\n    function close() public onlyOwner{\r\n        isOpen = false;\r\n        isClosed = true; \r\n    }\r\n\r\n    function results() public view returns(uint8[3] memory) {\r\n        // require(isClosed, \"Poll is not closed yet\");\r\n        return options;\r\n    }\r\n}\r\n",
  "sourcePath": "E:\\projects\\mini project\\decentralised voting\\D-voting\\contracts\\voteContract.sol",
  "compiler": {
    "name": "solc",
    "version": "0.8.18+commit.87f61d96.Emscripten.clang"
  },
  "schemaVersion": "3.4.16",
  "updatedAt": "2023-11-19T14:48:32.456Z",
  "networkType": "ethereum",
  "devdoc": {
    "kind": "dev",
    "methods": {},
    "version": 1
  },
  "userdoc": {
    "kind": "user",
    "methods": {},
    "version": 1
  }
}